{
  "contractName": "Payment",
  "abi": [
    {
      "constant": true,
      "inputs": [
        {
          "name": "",
          "type": "bytes32"
        }
      ],
      "name": "paymentReceived",
      "outputs": [
        {
          "name": "",
          "type": "uint8"
        }
      ],
      "payable": false,
      "stateMutability": "view",
      "type": "function"
    },
    {
      "constant": true,
      "inputs": [
        {
          "name": "",
          "type": "uint256"
        }
      ],
      "name": "activityList",
      "outputs": [
        {
          "name": "",
          "type": "bytes32"
        }
      ],
      "payable": false,
      "stateMutability": "view",
      "type": "function"
    },
    {
      "constant": false,
      "inputs": [
        {
          "name": "activityNames",
          "type": "bytes32[]"
        }
      ],
      "name": "paymentsTest",
      "outputs": [],
      "payable": false,
      "stateMutability": "nonpayable",
      "type": "function"
    },
    {
      "constant": true,
      "inputs": [
        {
          "name": "activity",
          "type": "bytes32"
        }
      ],
      "name": "totalPaymentFor",
      "outputs": [
        {
          "name": "",
          "type": "uint8"
        }
      ],
      "payable": false,
      "stateMutability": "view",
      "type": "function"
    },
    {
      "constant": false,
      "inputs": [
        {
          "name": "activity",
          "type": "bytes32"
        }
      ],
      "name": "payForActivity",
      "outputs": [],
      "payable": false,
      "stateMutability": "nonpayable",
      "type": "function"
    }
  ],
  "bytecode": "0x608060405234801561001057600080fd5b50610362806100206000396000f30060806040526004361061006c576000357c0100000000000000000000000000000000000000000000000000000000900463ffffffff168062c5b356146100715780630a66f1bb146100bc5780631a2f3aef14610105578063402e3dca1461016b578063cce35875146101b6575b600080fd5b34801561007d57600080fd5b506100a060048036038101908080356000191690602001909291905050506101e7565b604051808260ff1660ff16815260200191505060405180910390f35b3480156100c857600080fd5b506100e760048036038101908080359060200190929190505050610207565b60405180826000191660001916815260200191505060405180910390f35b34801561011157600080fd5b506101696004803603810190808035906020019082018035906020019080806020026020016040519081016040528093929190818152602001838360200280828437820191505050505050919291929050505061022a565b005b34801561017757600080fd5b5061019a6004803603810190808035600019169060200190929190505050610244565b604051808260ff1660ff16815260200191505060405180910390f35b3480156101c257600080fd5b506101e56004803603810190808035600019169060200190929190505050610275565b005b60006020528060005260406000206000915054906101000a900460ff1681565b60018181548110151561021657fe5b906000526020600020016000915090505481565b80600190805190602001906102409291906102be565b5050565b6000806000836000191660001916815260200190815260200160002060009054906101000a900460ff169050919050565b6001600080836000191660001916815260200190815260200160002060008282829054906101000a900460ff160192506101000a81548160ff021916908360ff16021790555050565b828054828255906000526020600020908101928215610300579160200282015b828111156102ff5782518290600019169055916020019190600101906102de565b5b50905061030d9190610311565b5090565b61033391905b8082111561032f576000816000905550600101610317565b5090565b905600a165627a7a723058208fc4a8947b436a0ee8c65ff581f241cae564ef997ce1ff43a354fd57f1753fee0029",
  "source": "pragma solidity ^0.4.17;\n// We have to specify what version of compiler this code will compile with\n\ncontract Payment {\n  /* mapping field below is equivalent to an associative array or hash.\n  */\n  \n  mapping (bytes32 => uint8) public paymentReceived;\n  \n  /* We will use an array of bytes32 to store the list of movies\n  */\n  \n  bytes32[] public activityList;\n\n  /* This is the constructor which will be called once when you\n  deploy the contract to the blockchain. When we deploy the contract,\n  we will pass an array of movies for which users will give ratings\n  */\n  function paymentsTest (bytes32[] activityNames) public {\n    activityList = activityNames;\n  }\n\n  // This function returns the total payment received for this activity\n  function totalPaymentFor(bytes32 activity) view public returns (uint8) {\n    return paymentReceived[activity];\n  }\n\n  // This function increments the vote count for the specified movie. Equivalent to upvoting\n  function payForActivity(bytes32 activity) public {\n    paymentReceived[activity] += 1;\n  }\n}",
  "sourcePath": "/Users/tsantamaria/Desktop/SeniorPhase/Stackathon/GH_Stackathon/paymentLord/payment/contracts/Payment.sol",
  "compiler": {
    "name": "solc",
    "version": "0.4.23+commit.124ca40d.Emscripten.clang"
  },
  "schemaVersion": "2.0.0",
  "updatedAt": "2018-04-30T12:47:48.700Z"
}